{
    "_format": "hh-sol-artifact-1",
    "contractName": "TodoContract",
    "sourceName": "contracts/TodoContract.sol",
    "abi": [
        {
            "anonymous": false,
            "inputs": [],
            "name": "AllTasksCleared",
            "type": "event"
        },
        {
            "anonymous": false,
            "inputs": [
                {
                    "indexed": false,
                    "internalType": "uint256",
                    "name": "id",
                    "type": "uint256"
                },
                {
                    "indexed": false,
                    "internalType": "string",
                    "name": "title",
                    "type": "string"
                },
                {
                    "indexed": false,
                    "internalType": "string",
                    "name": "description",
                    "type": "string"
                },
                {
                    "indexed": false,
                    "internalType": "string",
                    "name": "status",
                    "type": "string"
                },
                {
                    "indexed": false,
                    "internalType": "string",
                    "name": "priority",
                    "type": "string"
                },
                {
                    "indexed": false,
                    "internalType": "uint256",
                    "name": "deadline",
                    "type": "uint256"
                },
                {
                    "indexed": false,
                    "internalType": "string",
                    "name": "createdBy",
                    "type": "string"
                }
            ],
            "name": "TaskAdded",
            "type": "event"
        },
        {
            "anonymous": false,
            "inputs": [
                {
                    "indexed": false,
                    "internalType": "uint256",
                    "name": "id",
                    "type": "uint256"
                }
            ],
            "name": "TaskDeleted",
            "type": "event"
        },
        {
            "inputs": [
                {
                    "internalType": "string",
                    "name": "_title",
                    "type": "string"
                },
                {
                    "internalType": "string",
                    "name": "_description",
                    "type": "string"
                },
                {
                    "internalType": "string",
                    "name": "_status",
                    "type": "string"
                },
                {
                    "internalType": "string",
                    "name": "_priority",
                    "type": "string"
                },
                {
                    "internalType": "uint256",
                    "name": "_deadline",
                    "type": "uint256"
                },
                {
                    "internalType": "string",
                    "name": "_createdBy",
                    "type": "string"
                }
            ],
            "name": "addTask",
            "outputs": [],
            "stateMutability": "nonpayable",
            "type": "function"
        },
        {
            "inputs": [],
            "name": "clearTasks",
            "outputs": [],
            "stateMutability": "nonpayable",
            "type": "function"
        },
        {
            "inputs": [
                {
                    "internalType": "uint256",
                    "name": "_id",
                    "type": "uint256"
                }
            ],
            "name": "deleteTask",
            "outputs": [],
            "stateMutability": "nonpayable",
            "type": "function"
        },
        {
            "inputs": [],
            "name": "getOverdueTasks",
            "outputs": [
                {
                    "components": [
                        {
                            "internalType": "uint256",
                            "name": "id",
                            "type": "uint256"
                        },
                        {
                            "internalType": "string",
                            "name": "title",
                            "type": "string"
                        },
                        {
                            "internalType": "string",
                            "name": "description",
                            "type": "string"
                        },
                        {
                            "internalType": "string",
                            "name": "status",
                            "type": "string"
                        },
                        {
                            "internalType": "string",
                            "name": "priority",
                            "type": "string"
                        },
                        {
                            "internalType": "uint256",
                            "name": "deadline",
                            "type": "uint256"
                        },
                        {
                            "internalType": "string",
                            "name": "createdBy",
                            "type": "string"
                        }
                    ],
                    "internalType": "struct TodoContract.Task[]",
                    "name": "",
                    "type": "tuple[]"
                }
            ],
            "stateMutability": "view",
            "type": "function"
        },
        {
            "inputs": [
                {
                    "internalType": "uint256",
                    "name": "_id",
                    "type": "uint256"
                }
            ],
            "name": "getTaskById",
            "outputs": [
                {
                    "components": [
                        {
                            "internalType": "uint256",
                            "name": "id",
                            "type": "uint256"
                        },
                        {
                            "internalType": "string",
                            "name": "title",
                            "type": "string"
                        },
                        {
                            "internalType": "string",
                            "name": "description",
                            "type": "string"
                        },
                        {
                            "internalType": "string",
                            "name": "status",
                            "type": "string"
                        },
                        {
                            "internalType": "string",
                            "name": "priority",
                            "type": "string"
                        },
                        {
                            "internalType": "uint256",
                            "name": "deadline",
                            "type": "uint256"
                        },
                        {
                            "internalType": "string",
                            "name": "createdBy",
                            "type": "string"
                        }
                    ],
                    "internalType": "struct TodoContract.Task",
                    "name": "",
                    "type": "tuple"
                }
            ],
            "stateMutability": "view",
            "type": "function"
        },
        {
            "inputs": [
                {
                    "internalType": "string",
                    "name": "_userId",
                    "type": "string"
                }
            ],
            "name": "getTasks",
            "outputs": [
                {
                    "components": [
                        {
                            "internalType": "uint256",
                            "name": "id",
                            "type": "uint256"
                        },
                        {
                            "internalType": "string",
                            "name": "title",
                            "type": "string"
                        },
                        {
                            "internalType": "string",
                            "name": "description",
                            "type": "string"
                        },
                        {
                            "internalType": "string",
                            "name": "status",
                            "type": "string"
                        },
                        {
                            "internalType": "string",
                            "name": "priority",
                            "type": "string"
                        },
                        {
                            "internalType": "uint256",
                            "name": "deadline",
                            "type": "uint256"
                        },
                        {
                            "internalType": "string",
                            "name": "createdBy",
                            "type": "string"
                        }
                    ],
                    "internalType": "struct TodoContract.Task[]",
                    "name": "",
                    "type": "tuple[]"
                }
            ],
            "stateMutability": "view",
            "type": "function"
        },
        {
            "inputs": [
                {
                    "internalType": "uint256",
                    "name": "_id",
                    "type": "uint256"
                },
                {
                    "internalType": "string",
                    "name": "_title",
                    "type": "string"
                },
                {
                    "internalType": "string",
                    "name": "_description",
                    "type": "string"
                },
                {
                    "internalType": "string",
                    "name": "_status",
                    "type": "string"
                },
                {
                    "internalType": "string",
                    "name": "_priority",
                    "type": "string"
                },
                {
                    "internalType": "uint256",
                    "name": "_deadline",
                    "type": "uint256"
                }
            ],
            "name": "updateTask",
            "outputs": [],
            "stateMutability": "nonpayable",
            "type": "function"
        },
        {
            "inputs": [
                {
                    "internalType": "uint256",
                    "name": "_id",
                    "type": "uint256"
                },
                {
                    "internalType": "string",
                    "name": "_newStatus",
                    "type": "string"
                }
            ],
            "name": "updateTaskStatus",
            "outputs": [],
            "stateMutability": "nonpayable",
            "type": "function"
        }
    ],
    "bytecode": "0x60806040526001805534801561001457600080fd5b50612291806100246000396000f3fe608060405234801561001057600080fd5b50600436106100885760003560e01c806383aa4d6d1161005b57806383aa4d6d14610111578063976217cd1461012d578063db5916641461015d578063fa96f7421461016757610088565b806335643b431461008d578063378f1871146100bd5780634494936b146100d9578063560f3192146100f5575b600080fd5b6100a760048036038101906100a291906117e3565b610185565b6040516100b49190611a47565b60405180910390f35b6100d760048036038101906100d29190611a95565b6105a5565b005b6100f360048036038101906100ee9190611bae565b610711565b005b61010f600480360381019061010a9190611cab565b6108bd565b005b61012b60048036038101906101269190611cd8565b610b20565b005b61014760048036038101906101429190611cab565b610bf0565b6040516101549190611dec565b60405180910390f35b610165610fac565b005b61016f610fe7565b60405161017c9190611a47565b60405180910390f35b60606000808054905067ffffffffffffffff8111156101a7576101a66116b8565b5b6040519080825280602002602001820160405280156101e057816020015b6101cd611441565b8152602001906001900390816101c55790505b5090506000805b600080549050811015610597578480519060200120600082815481106102105761020f611e0e565b5b906000526020600020906007020160060160405161022e9190611f3d565b6040518091039020141561058457600081815481106102505761024f611e0e565b5b90600052602060002090600702016040518060e00160405290816000820154815260200160018201805461028390611e6c565b80601f01602080910402602001604051908101604052809291908181526020018280546102af90611e6c565b80156102fc5780601f106102d1576101008083540402835291602001916102fc565b820191906000526020600020905b8154815290600101906020018083116102df57829003601f168201915b5050505050815260200160028201805461031590611e6c565b80601f016020809104026020016040519081016040528092919081815260200182805461034190611e6c565b801561038e5780601f106103635761010080835404028352916020019161038e565b820191906000526020600020905b81548152906001019060200180831161037157829003601f168201915b505050505081526020016003820180546103a790611e6c565b80601f01602080910402602001604051908101604052809291908181526020018280546103d390611e6c565b80156104205780601f106103f557610100808354040283529160200191610420565b820191906000526020600020905b81548152906001019060200180831161040357829003601f168201915b5050505050815260200160048201805461043990611e6c565b80601f016020809104026020016040519081016040528092919081815260200182805461046590611e6c565b80156104b25780601f10610487576101008083540402835291602001916104b2565b820191906000526020600020905b81548152906001019060200180831161049557829003601f168201915b50505050508152602001600582015481526020016006820180546104d590611e6c565b80601f016020809104026020016040519081016040528092919081815260200182805461050190611e6c565b801561054e5780601f106105235761010080835404028352916020019161054e565b820191906000526020600020905b81548152906001019060200180831161053157829003601f168201915b50505050508152505083838151811061056a57610569611e0e565b5b6020026020010181905250818061058090611f83565b9250505b808061058f90611f83565b9150506101e7565b508082528192505050919050565b60006040518060e00160405280600154815260200188815260200187815260200186815260200185815260200184815260200183815250908060018154018082558091505060019003906000526020600020906007020160009091909190915060008201518160000155602082015181600101908051906020019061062b92919061147e565b50604082015181600201908051906020019061064892919061147e565b50606082015181600301908051906020019061066592919061147e565b50608082015181600401908051906020019061068292919061147e565b5060a0820151816005015560c08201518160060190805190602001906106a992919061147e565b5050507f9b574d07c584ca2122dda996da8eeaef8877e1d01694c0628cac2fda2372443a6001548787878787876040516106e99796959493929190612025565b60405180910390a16001600081548092919061070490611f83565b9190505550505050505050565b60005b60008054905081101561087957866000828154811061073657610735611e0e565b5b906000526020600020906007020160000154141561086657856000828154811061076357610762611e0e565b5b9060005260206000209060070201600101908051906020019061078792919061147e565b50846000828154811061079d5761079c611e0e565b5b906000526020600020906007020160020190805190602001906107c192919061147e565b5083600082815481106107d7576107d6611e0e565b5b906000526020600020906007020160030190805190602001906107fb92919061147e565b50826000828154811061081157610810611e0e565b5b9060005260206000209060070201600401908051906020019061083592919061147e565b50816000828154811061084b5761084a611e0e565b5b906000526020600020906007020160050181905550506108b5565b808061087190611f83565b915050610714565b506040517f08c379a00000000000000000000000000000000000000000000000000000000081526004016108ac90612103565b60405180910390fd5b505050505050565b60005b600080549050811015610ae15781600082815481106108e2576108e1611e0e565b5b9060005260206000209060070201600001541415610ace576000600160008054905061090e9190612123565b8154811061091f5761091e611e0e565b5b90600052602060002090600702016000828154811061094157610940611e0e565b5b906000526020600020906007020160008201548160000155600182018160010190805461096d90611e6c565b610978929190611504565b50600282018160020190805461098d90611e6c565b610998929190611504565b5060038201816003019080546109ad90611e6c565b6109b8929190611504565b5060048201816004019080546109cd90611e6c565b6109d8929190611504565b506005820154816005015560068201816006019080546109f790611e6c565b610a02929190611504565b509050506000805480610a1857610a17612157565b5b6001900381819060005260206000209060070201600080820160009055600182016000610a459190611591565b600282016000610a559190611591565b600382016000610a659190611591565b600482016000610a759190611591565b6005820160009055600682016000610a8d9190611591565b505090557fd078b251d950cc55c44340be1db732337ef4939a76e1367ee271ad2cb19c46af82604051610ac09190612186565b60405180910390a150610b1d565b8080610ad990611f83565b9150506108c0565b506040517f08c379a0000000000000000000000000000000000000000000000000000000008152600401610b1490612103565b60405180910390fd5b50565b60005b600080549050811015610bb0578260008281548110610b4557610b44611e0e565b5b9060005260206000209060070201600001541415610b9d578160008281548110610b7257610b71611e0e565b5b90600052602060002090600702016003019080519060200190610b9692919061147e565b5050610bec565b8080610ba890611f83565b915050610b23565b506040517f08c379a0000000000000000000000000000000000000000000000000000000008152600401610be390612103565b60405180910390fd5b5050565b610bf8611441565b60005b600080549050811015610f6b578260008281548110610c1d57610c1c611e0e565b5b9060005260206000209060070201600001541415610f585760008181548110610c4957610c48611e0e565b5b90600052602060002090600702016040518060e001604052908160008201548152602001600182018054610c7c90611e6c565b80601f0160208091040260200160405190810160405280929190818152602001828054610ca890611e6c565b8015610cf55780601f10610cca57610100808354040283529160200191610cf5565b820191906000526020600020905b815481529060010190602001808311610cd857829003601f168201915b50505050508152602001600282018054610d0e90611e6c565b80601f0160208091040260200160405190810160405280929190818152602001828054610d3a90611e6c565b8015610d875780601f10610d5c57610100808354040283529160200191610d87565b820191906000526020600020905b815481529060010190602001808311610d6a57829003601f168201915b50505050508152602001600382018054610da090611e6c565b80601f0160208091040260200160405190810160405280929190818152602001828054610dcc90611e6c565b8015610e195780601f10610dee57610100808354040283529160200191610e19565b820191906000526020600020905b815481529060010190602001808311610dfc57829003601f168201915b50505050508152602001600482018054610e3290611e6c565b80601f0160208091040260200160405190810160405280929190818152602001828054610e5e90611e6c565b8015610eab5780601f10610e8057610100808354040283529160200191610eab565b820191906000526020600020905b815481529060010190602001808311610e8e57829003601f168201915b5050505050815260200160058201548152602001600682018054610ece90611e6c565b80601f0160208091040260200160405190810160405280929190818152602001828054610efa90611e6c565b8015610f475780601f10610f1c57610100808354040283529160200191610f47565b820191906000526020600020905b815481529060010190602001808311610f2a57829003601f168201915b505050505081525050915050610fa7565b8080610f6390611f83565b915050610bfb565b506040517f08c379a0000000000000000000000000000000000000000000000000000000008152600401610f9e90612103565b60405180910390fd5b919050565b600080610fb991906115d1565b7f70bb20a8ca709cf705c4b2868fc0dd86d1cb90192565ba104cc8acc48f4c41f960405160405180910390a1565b60606000808054905067ffffffffffffffff811115611009576110086116b8565b5b60405190808252806020026020018201604052801561104257816020015b61102f611441565b8152602001906001900390816110275790505b5090506000805b6000805490508110156113e4576110846000828154811061106d5761106c611e0e565b5b9060005260206000209060070201600501546113f0565b156113d1576000818154811061109d5761109c611e0e565b5b90600052602060002090600702016040518060e0016040529081600082015481526020016001820180546110d090611e6c565b80601f01602080910402602001604051908101604052809291908181526020018280546110fc90611e6c565b80156111495780601f1061111e57610100808354040283529160200191611149565b820191906000526020600020905b81548152906001019060200180831161112c57829003601f168201915b5050505050815260200160028201805461116290611e6c565b80601f016020809104026020016040519081016040528092919081815260200182805461118e90611e6c565b80156111db5780601f106111b0576101008083540402835291602001916111db565b820191906000526020600020905b8154815290600101906020018083116111be57829003601f168201915b505050505081526020016003820180546111f490611e6c565b80601f016020809104026020016040519081016040528092919081815260200182805461122090611e6c565b801561126d5780601f106112425761010080835404028352916020019161126d565b820191906000526020600020905b81548152906001019060200180831161125057829003601f168201915b5050505050815260200160048201805461128690611e6c565b80601f01602080910402602001604051908101604052809291908181526020018280546112b290611e6c565b80156112ff5780601f106112d4576101008083540402835291602001916112ff565b820191906000526020600020905b8154815290600101906020018083116112e257829003601f168201915b505050505081526020016005820154815260200160068201805461132290611e6c565b80601f016020809104026020016040519081016040528092919081815260200182805461134e90611e6c565b801561139b5780601f106113705761010080835404028352916020019161139b565b820191906000526020600020905b81548152906001019060200180831161137e57829003601f168201915b5050505050815250508383815181106113b7576113b6611e0e565b5b602002602001018190525081806113cd90611f83565b9250505b80806113dc90611f83565b915050611049565b50808252819250505090565b6000806113fb611408565b9050808310915050919050565b6000804290506000620151808261141f91906121d0565b8261142a9190612123565b90506103e88161143a9190612201565b9250505090565b6040518060e00160405280600081526020016060815260200160608152602001606081526020016060815260200160008152602001606081525090565b82805461148a90611e6c565b90600052602060002090601f0160209004810192826114ac57600085556114f3565b82601f106114c557805160ff19168380011785556114f3565b828001600101855582156114f3579182015b828111156114f25782518255916020019190600101906114d7565b5b50905061150091906115f5565b5090565b82805461151090611e6c565b90600052602060002090601f0160209004810192826115325760008555611580565b82601f106115435780548555611580565b8280016001018555821561158057600052602060002091601f016020900482015b8281111561157f578254825591600101919060010190611564565b5b50905061158d91906115f5565b5090565b50805461159d90611e6c565b6000825580601f106115af57506115ce565b601f0160209004906000526020600020908101906115cd91906115f5565b5b50565b50805460008255600702906000526020600020908101906115f29190611612565b50565b5b8082111561160e5760008160009055506001016115f6565b5090565b5b80821115611685576000808201600090556001820160006116349190611591565b6002820160006116449190611591565b6003820160006116549190611591565b6004820160006116649190611591565b600582016000905560068201600061167c9190611591565b50600701611613565b5090565b6000604051905090565b600080fd5b600080fd5b600080fd5b600080fd5b6000601f19601f8301169050919050565b7f4e487b7100000000000000000000000000000000000000000000000000000000600052604160045260246000fd5b6116f0826116a7565b810181811067ffffffffffffffff8211171561170f5761170e6116b8565b5b80604052505050565b6000611722611689565b905061172e82826116e7565b919050565b600067ffffffffffffffff82111561174e5761174d6116b8565b5b611757826116a7565b9050602081019050919050565b82818337600083830152505050565b600061178661178184611733565b611718565b9050828152602081018484840111156117a2576117a16116a2565b5b6117ad848285611764565b509392505050565b600082601f8301126117ca576117c961169d565b5b81356117da848260208601611773565b91505092915050565b6000602082840312156117f9576117f8611693565b5b600082013567ffffffffffffffff81111561181757611816611698565b5b611823848285016117b5565b91505092915050565b600081519050919050565b600082825260208201905092915050565b6000819050602082019050919050565b6000819050919050565b61186b81611858565b82525050565b600081519050919050565b600082825260208201905092915050565b60005b838110156118ab578082015181840152602081019050611890565b838111156118ba576000848401525b50505050565b60006118cb82611871565b6118d5818561187c565b93506118e581856020860161188d565b6118ee816116a7565b840191505092915050565b600060e0830160008301516119116000860182611862565b506020830151848203602086015261192982826118c0565b9150506040830151848203604086015261194382826118c0565b9150506060830151848203606086015261195d82826118c0565b9150506080830151848203608086015261197782826118c0565b91505060a083015161198c60a0860182611862565b5060c083015184820360c08601526119a482826118c0565b9150508091505092915050565b60006119bd83836118f9565b905092915050565b6000602082019050919050565b60006119dd8261182c565b6119e78185611837565b9350836020820285016119f985611848565b8060005b85811015611a355784840389528151611a1685826119b1565b9450611a21836119c5565b925060208a019950506001810190506119fd565b50829750879550505050505092915050565b60006020820190508181036000830152611a6181846119d2565b905092915050565b611a7281611858565b8114611a7d57600080fd5b50565b600081359050611a8f81611a69565b92915050565b60008060008060008060c08789031215611ab257611ab1611693565b5b600087013567ffffffffffffffff811115611ad057611acf611698565b5b611adc89828a016117b5565b965050602087013567ffffffffffffffff811115611afd57611afc611698565b5b611b0989828a016117b5565b955050604087013567ffffffffffffffff811115611b2a57611b29611698565b5b611b3689828a016117b5565b945050606087013567ffffffffffffffff811115611b5757611b56611698565b5b611b6389828a016117b5565b9350506080611b7489828a01611a80565b92505060a087013567ffffffffffffffff811115611b9557611b94611698565b5b611ba189828a016117b5565b9150509295509295509295565b60008060008060008060c08789031215611bcb57611bca611693565b5b6000611bd989828a01611a80565b965050602087013567ffffffffffffffff811115611bfa57611bf9611698565b5b611c0689828a016117b5565b955050604087013567ffffffffffffffff811115611c2757611c26611698565b5b611c3389828a016117b5565b945050606087013567ffffffffffffffff811115611c5457611c53611698565b5b611c6089828a016117b5565b935050608087013567ffffffffffffffff811115611c8157611c80611698565b5b611c8d89828a016117b5565b92505060a0611c9e89828a01611a80565b9150509295509295509295565b600060208284031215611cc157611cc0611693565b5b6000611ccf84828501611a80565b91505092915050565b60008060408385031215611cef57611cee611693565b5b6000611cfd85828601611a80565b925050602083013567ffffffffffffffff811115611d1e57611d1d611698565b5b611d2a858286016117b5565b9150509250929050565b600060e083016000830151611d4c6000860182611862565b5060208301518482036020860152611d6482826118c0565b91505060408301518482036040860152611d7e82826118c0565b91505060608301518482036060860152611d9882826118c0565b91505060808301518482036080860152611db282826118c0565b91505060a0830151611dc760a0860182611862565b5060c083015184820360c0860152611ddf82826118c0565b9150508091505092915050565b60006020820190508181036000830152611e068184611d34565b905092915050565b7f4e487b7100000000000000000000000000000000000000000000000000000000600052603260045260246000fd5b7f4e487b7100000000000000000000000000000000000000000000000000000000600052602260045260246000fd5b60006002820490506001821680611e8457607f821691505b60208210811415611e9857611e97611e3d565b5b50919050565b600081905092915050565b60008190508160005260206000209050919050565b60008154611ecb81611e6c565b611ed58186611e9e565b94506001821660008114611ef05760018114611f0157611f34565b60ff19831686528186019350611f34565b611f0a85611ea9565b60005b83811015611f2c57815481890152600182019150602081019050611f0d565b838801955050505b50505092915050565b6000611f498284611ebe565b915081905092915050565b7f4e487b7100000000000000000000000000000000000000000000000000000000600052601160045260246000fd5b6000611f8e82611858565b91507fffffffffffffffffffffffffffffffffffffffffffffffffffffffffffffffff821415611fc157611fc0611f54565b5b600182019050919050565b611fd581611858565b82525050565b600082825260208201905092915050565b6000611ff782611871565b6120018185611fdb565b935061201181856020860161188d565b61201a816116a7565b840191505092915050565b600060e08201905061203a600083018a611fcc565b818103602083015261204c8189611fec565b905081810360408301526120608188611fec565b905081810360608301526120748187611fec565b905081810360808301526120888186611fec565b905061209760a0830185611fcc565b81810360c08301526120a98184611fec565b905098975050505050505050565b7f5461736b206e6f7420666f756e64000000000000000000000000000000000000600082015250565b60006120ed600e83611fdb565b91506120f8826120b7565b602082019050919050565b6000602082019050818103600083015261211c816120e0565b9050919050565b600061212e82611858565b915061213983611858565b92508282101561214c5761214b611f54565b5b828203905092915050565b7f4e487b7100000000000000000000000000000000000000000000000000000000600052603160045260246000fd5b600060208201905061219b6000830184611fcc565b92915050565b7f4e487b7100000000000000000000000000000000000000000000000000000000600052601260045260246000fd5b60006121db82611858565b91506121e683611858565b9250826121f6576121f56121a1565b5b828206905092915050565b600061220c82611858565b915061221783611858565b9250817fffffffffffffffffffffffffffffffffffffffffffffffffffffffffffffffff04831182151516156122505761224f611f54565b5b82820290509291505056fea26469706673582212202de06f522e7f73257545364c6ee01f50b45247ad87bfa6fb2ab7e1360d76259664736f6c634300080b0033",
    "linkReferences": {},
    "deployedLinkReferences": {}
}