{
    "_format": "hh-sol-artifact-1",
    "contractName": "TodoContract",
    "sourceName": "contracts/TodoContract.sol",
    "abi": [
        {
            "anonymous": false,
            "inputs": [],
            "name": "AllTasksCleared",
            "type": "event"
        },
        {
            "anonymous": false,
            "inputs": [
                {
                    "indexed": false,
                    "internalType": "uint256",
                    "name": "id",
                    "type": "uint256"
                },
                {
                    "indexed": false,
                    "internalType": "string",
                    "name": "title",
                    "type": "string"
                },
                {
                    "indexed": false,
                    "internalType": "string",
                    "name": "description",
                    "type": "string"
                },
                {
                    "indexed": false,
                    "internalType": "string",
                    "name": "status",
                    "type": "string"
                },
                {
                    "indexed": false,
                    "internalType": "string",
                    "name": "priority",
                    "type": "string"
                },
                {
                    "indexed": false,
                    "internalType": "uint256",
                    "name": "deadline",
                    "type": "uint256"
                },
                {
                    "indexed": false,
                    "internalType": "string",
                    "name": "createdBy",
                    "type": "string"
                }
            ],
            "name": "TaskAdded",
            "type": "event"
        },
        {
            "anonymous": false,
            "inputs": [
                {
                    "indexed": false,
                    "internalType": "uint256",
                    "name": "id",
                    "type": "uint256"
                }
            ],
            "name": "TaskDeleted",
            "type": "event"
        },
        {
            "inputs": [
                {
                    "internalType": "string",
                    "name": "_title",
                    "type": "string"
                },
                {
                    "internalType": "string",
                    "name": "_description",
                    "type": "string"
                },
                {
                    "internalType": "string",
                    "name": "_status",
                    "type": "string"
                },
                {
                    "internalType": "string",
                    "name": "_priority",
                    "type": "string"
                },
                {
                    "internalType": "uint256",
                    "name": "_deadline",
                    "type": "uint256"
                },
                {
                    "internalType": "string",
                    "name": "_createdBy",
                    "type": "string"
                }
            ],
            "name": "addTask",
            "outputs": [],
            "stateMutability": "nonpayable",
            "type": "function"
        },
        {
            "inputs": [],
            "name": "clearTasks",
            "outputs": [],
            "stateMutability": "nonpayable",
            "type": "function"
        },
        {
            "inputs": [
                {
                    "internalType": "uint256",
                    "name": "_id",
                    "type": "uint256"
                }
            ],
            "name": "deleteTask",
            "outputs": [],
            "stateMutability": "nonpayable",
            "type": "function"
        },
        {
            "inputs": [
                {
                    "internalType": "uint256",
                    "name": "_id",
                    "type": "uint256"
                }
            ],
            "name": "getTaskById",
            "outputs": [
                {
                    "components": [
                        {
                            "internalType": "uint256",
                            "name": "id",
                            "type": "uint256"
                        },
                        {
                            "internalType": "string",
                            "name": "title",
                            "type": "string"
                        },
                        {
                            "internalType": "string",
                            "name": "description",
                            "type": "string"
                        },
                        {
                            "internalType": "string",
                            "name": "status",
                            "type": "string"
                        },
                        {
                            "internalType": "string",
                            "name": "priority",
                            "type": "string"
                        },
                        {
                            "internalType": "uint256",
                            "name": "deadline",
                            "type": "uint256"
                        },
                        {
                            "internalType": "string",
                            "name": "createdBy",
                            "type": "string"
                        }
                    ],
                    "internalType": "struct TodoContract.Task",
                    "name": "",
                    "type": "tuple"
                }
            ],
            "stateMutability": "view",
            "type": "function"
        },
        {
            "inputs": [],
            "name": "getTasks",
            "outputs": [
                {
                    "components": [
                        {
                            "internalType": "uint256",
                            "name": "id",
                            "type": "uint256"
                        },
                        {
                            "internalType": "string",
                            "name": "title",
                            "type": "string"
                        },
                        {
                            "internalType": "string",
                            "name": "description",
                            "type": "string"
                        },
                        {
                            "internalType": "string",
                            "name": "status",
                            "type": "string"
                        },
                        {
                            "internalType": "string",
                            "name": "priority",
                            "type": "string"
                        },
                        {
                            "internalType": "uint256",
                            "name": "deadline",
                            "type": "uint256"
                        },
                        {
                            "internalType": "string",
                            "name": "createdBy",
                            "type": "string"
                        }
                    ],
                    "internalType": "struct TodoContract.Task[]",
                    "name": "",
                    "type": "tuple[]"
                }
            ],
            "stateMutability": "view",
            "type": "function"
        },
        {
            "inputs": [
                {
                    "internalType": "uint256",
                    "name": "_id",
                    "type": "uint256"
                },
                {
                    "internalType": "string",
                    "name": "_title",
                    "type": "string"
                },
                {
                    "internalType": "string",
                    "name": "_description",
                    "type": "string"
                },
                {
                    "internalType": "string",
                    "name": "_status",
                    "type": "string"
                },
                {
                    "internalType": "string",
                    "name": "_priority",
                    "type": "string"
                },
                {
                    "internalType": "uint256",
                    "name": "_deadline",
                    "type": "uint256"
                }
            ],
            "name": "updateTask",
            "outputs": [],
            "stateMutability": "nonpayable",
            "type": "function"
        },
        {
            "inputs": [
                {
                    "internalType": "uint256",
                    "name": "_id",
                    "type": "uint256"
                },
                {
                    "internalType": "string",
                    "name": "_newStatus",
                    "type": "string"
                }
            ],
            "name": "updateTaskStatus",
            "outputs": [],
            "stateMutability": "nonpayable",
            "type": "function"
        }
    ],
    "bytecode": "0x60806040526001805534801561001457600080fd5b50611b70806100246000396000f3fe608060405234801561001057600080fd5b506004361061007d5760003560e01c8063560f31921161005b578063560f3192146100d857806383aa4d6d146100f4578063976217cd14610110578063db591664146101405761007d565b806304a87e3814610082578063378f1871146100a05780634494936b146100bc575b600080fd5b61008a61014a565b604051610097919061134d565b60405180910390f35b6100ba60048036038101906100b591906114e4565b610497565b005b6100d660048036038101906100d191906115fd565b610603565b005b6100f260048036038101906100ed91906116fa565b6107af565b005b61010e60048036038101906101099190611727565b610a12565b005b61012a600480360381019061012591906116fa565b610ae2565b604051610137919061183b565b60405180910390f35b610148610e9e565b005b60606000805480602002602001604051908101604052809291908181526020016000905b8282101561048e57838290600052602060002090600702016040518060e0016040529081600082015481526020016001820180546101ab9061188c565b80601f01602080910402602001604051908101604052809291908181526020018280546101d79061188c565b80156102245780601f106101f957610100808354040283529160200191610224565b820191906000526020600020905b81548152906001019060200180831161020757829003601f168201915b5050505050815260200160028201805461023d9061188c565b80601f01602080910402602001604051908101604052809291908181526020018280546102699061188c565b80156102b65780601f1061028b576101008083540402835291602001916102b6565b820191906000526020600020905b81548152906001019060200180831161029957829003601f168201915b505050505081526020016003820180546102cf9061188c565b80601f01602080910402602001604051908101604052809291908181526020018280546102fb9061188c565b80156103485780601f1061031d57610100808354040283529160200191610348565b820191906000526020600020905b81548152906001019060200180831161032b57829003601f168201915b505050505081526020016004820180546103619061188c565b80601f016020809104026020016040519081016040528092919081815260200182805461038d9061188c565b80156103da5780601f106103af576101008083540402835291602001916103da565b820191906000526020600020905b8154815290600101906020018083116103bd57829003601f168201915b50505050508152602001600582015481526020016006820180546103fd9061188c565b80601f01602080910402602001604051908101604052809291908181526020018280546104299061188c565b80156104765780601f1061044b57610100808354040283529160200191610476565b820191906000526020600020905b81548152906001019060200180831161045957829003601f168201915b5050505050815250508152602001906001019061016e565b50505050905090565b60006040518060e00160405280600154815260200188815260200187815260200186815260200185815260200184815260200183815250908060018154018082558091505060019003906000526020600020906007020160009091909190915060008201518160000155602082015181600101908051906020019061051d929190610ed9565b50604082015181600201908051906020019061053a929190610ed9565b506060820151816003019080519060200190610557929190610ed9565b506080820151816004019080519060200190610574929190610ed9565b5060a0820151816005015560c082015181600601908051906020019061059b929190610ed9565b5050507f9b574d07c584ca2122dda996da8eeaef8877e1d01694c0628cac2fda2372443a6001548787878787876040516105db9796959493929190611917565b60405180910390a1600160008154809291906105f6906119d8565b9190505550505050505050565b60005b60008054905081101561076b57866000828154811061062857610627611a21565b5b906000526020600020906007020160000154141561075857856000828154811061065557610654611a21565b5b90600052602060002090600702016001019080519060200190610679929190610ed9565b50846000828154811061068f5761068e611a21565b5b906000526020600020906007020160020190805190602001906106b3929190610ed9565b5083600082815481106106c9576106c8611a21565b5b906000526020600020906007020160030190805190602001906106ed929190610ed9565b50826000828154811061070357610702611a21565b5b90600052602060002090600702016004019080519060200190610727929190610ed9565b50816000828154811061073d5761073c611a21565b5b906000526020600020906007020160050181905550506107a7565b8080610763906119d8565b915050610606565b506040517f08c379a000000000000000000000000000000000000000000000000000000000815260040161079e90611a9c565b60405180910390fd5b505050505050565b60005b6000805490508110156109d35781600082815481106107d4576107d3611a21565b5b90600052602060002090600702016000015414156109c057600060016000805490506108009190611abc565b8154811061081157610810611a21565b5b90600052602060002090600702016000828154811061083357610832611a21565b5b906000526020600020906007020160008201548160000155600182018160010190805461085f9061188c565b61086a929190610f5f565b50600282018160020190805461087f9061188c565b61088a929190610f5f565b50600382018160030190805461089f9061188c565b6108aa929190610f5f565b5060048201816004019080546108bf9061188c565b6108ca929190610f5f565b506005820154816005015560068201816006019080546108e99061188c565b6108f4929190610f5f565b50905050600080548061090a57610909611af0565b5b60019003818190600052602060002090600702016000808201600090556001820160006109379190610fec565b6002820160006109479190610fec565b6003820160006109579190610fec565b6004820160006109679190610fec565b600582016000905560068201600061097f9190610fec565b505090557fd078b251d950cc55c44340be1db732337ef4939a76e1367ee271ad2cb19c46af826040516109b29190611b1f565b60405180910390a150610a0f565b80806109cb906119d8565b9150506107b2565b506040517f08c379a0000000000000000000000000000000000000000000000000000000008152600401610a0690611a9c565b60405180910390fd5b50565b60005b600080549050811015610aa2578260008281548110610a3757610a36611a21565b5b9060005260206000209060070201600001541415610a8f578160008281548110610a6457610a63611a21565b5b90600052602060002090600702016003019080519060200190610a88929190610ed9565b5050610ade565b8080610a9a906119d8565b915050610a15565b506040517f08c379a0000000000000000000000000000000000000000000000000000000008152600401610ad590611a9c565b60405180910390fd5b5050565b610aea61102c565b60005b600080549050811015610e5d578260008281548110610b0f57610b0e611a21565b5b9060005260206000209060070201600001541415610e4a5760008181548110610b3b57610b3a611a21565b5b90600052602060002090600702016040518060e001604052908160008201548152602001600182018054610b6e9061188c565b80601f0160208091040260200160405190810160405280929190818152602001828054610b9a9061188c565b8015610be75780601f10610bbc57610100808354040283529160200191610be7565b820191906000526020600020905b815481529060010190602001808311610bca57829003601f168201915b50505050508152602001600282018054610c009061188c565b80601f0160208091040260200160405190810160405280929190818152602001828054610c2c9061188c565b8015610c795780601f10610c4e57610100808354040283529160200191610c79565b820191906000526020600020905b815481529060010190602001808311610c5c57829003601f168201915b50505050508152602001600382018054610c929061188c565b80601f0160208091040260200160405190810160405280929190818152602001828054610cbe9061188c565b8015610d0b5780601f10610ce057610100808354040283529160200191610d0b565b820191906000526020600020905b815481529060010190602001808311610cee57829003601f168201915b50505050508152602001600482018054610d249061188c565b80601f0160208091040260200160405190810160405280929190818152602001828054610d509061188c565b8015610d9d5780601f10610d7257610100808354040283529160200191610d9d565b820191906000526020600020905b815481529060010190602001808311610d8057829003601f168201915b5050505050815260200160058201548152602001600682018054610dc09061188c565b80601f0160208091040260200160405190810160405280929190818152602001828054610dec9061188c565b8015610e395780601f10610e0e57610100808354040283529160200191610e39565b820191906000526020600020905b815481529060010190602001808311610e1c57829003601f168201915b505050505081525050915050610e99565b8080610e55906119d8565b915050610aed565b506040517f08c379a0000000000000000000000000000000000000000000000000000000008152600401610e9090611a9c565b60405180910390fd5b919050565b600080610eab9190611069565b7f70bb20a8ca709cf705c4b2868fc0dd86d1cb90192565ba104cc8acc48f4c41f960405160405180910390a1565b828054610ee59061188c565b90600052602060002090601f016020900481019282610f075760008555610f4e565b82601f10610f2057805160ff1916838001178555610f4e565b82800160010185558215610f4e579182015b82811115610f4d578251825591602001919060010190610f32565b5b509050610f5b919061108d565b5090565b828054610f6b9061188c565b90600052602060002090601f016020900481019282610f8d5760008555610fdb565b82601f10610f9e5780548555610fdb565b82800160010185558215610fdb57600052602060002091601f016020900482015b82811115610fda578254825591600101919060010190610fbf565b5b509050610fe8919061108d565b5090565b508054610ff89061188c565b6000825580601f1061100a5750611029565b601f016020900490600052602060002090810190611028919061108d565b5b50565b6040518060e00160405280600081526020016060815260200160608152602001606081526020016060815260200160008152602001606081525090565b508054600082556007029060005260206000209081019061108a91906110aa565b50565b5b808211156110a657600081600090555060010161108e565b5090565b5b8082111561111d576000808201600090556001820160006110cc9190610fec565b6002820160006110dc9190610fec565b6003820160006110ec9190610fec565b6004820160006110fc9190610fec565b60058201600090556006820160006111149190610fec565b506007016110ab565b5090565b600081519050919050565b600082825260208201905092915050565b6000819050602082019050919050565b6000819050919050565b6111608161114d565b82525050565b600081519050919050565b600082825260208201905092915050565b60005b838110156111a0578082015181840152602081019050611185565b838111156111af576000848401525b50505050565b6000601f19601f8301169050919050565b60006111d182611166565b6111db8185611171565b93506111eb818560208601611182565b6111f4816111b5565b840191505092915050565b600060e0830160008301516112176000860182611157565b506020830151848203602086015261122f82826111c6565b9150506040830151848203604086015261124982826111c6565b9150506060830151848203606086015261126382826111c6565b9150506080830151848203608086015261127d82826111c6565b91505060a083015161129260a0860182611157565b5060c083015184820360c08601526112aa82826111c6565b9150508091505092915050565b60006112c383836111ff565b905092915050565b6000602082019050919050565b60006112e382611121565b6112ed818561112c565b9350836020820285016112ff8561113d565b8060005b8581101561133b578484038952815161131c85826112b7565b9450611327836112cb565b925060208a01995050600181019050611303565b50829750879550505050505092915050565b6000602082019050818103600083015261136781846112d8565b905092915050565b6000604051905090565b600080fd5b600080fd5b600080fd5b600080fd5b7f4e487b7100000000000000000000000000000000000000000000000000000000600052604160045260246000fd5b6113c5826111b5565b810181811067ffffffffffffffff821117156113e4576113e361138d565b5b80604052505050565b60006113f761136f565b905061140382826113bc565b919050565b600067ffffffffffffffff8211156114235761142261138d565b5b61142c826111b5565b9050602081019050919050565b82818337600083830152505050565b600061145b61145684611408565b6113ed565b90508281526020810184848401111561147757611476611388565b5b611482848285611439565b509392505050565b600082601f83011261149f5761149e611383565b5b81356114af848260208601611448565b91505092915050565b6114c18161114d565b81146114cc57600080fd5b50565b6000813590506114de816114b8565b92915050565b60008060008060008060c0878903121561150157611500611379565b5b600087013567ffffffffffffffff81111561151f5761151e61137e565b5b61152b89828a0161148a565b965050602087013567ffffffffffffffff81111561154c5761154b61137e565b5b61155889828a0161148a565b955050604087013567ffffffffffffffff8111156115795761157861137e565b5b61158589828a0161148a565b945050606087013567ffffffffffffffff8111156115a6576115a561137e565b5b6115b289828a0161148a565b93505060806115c389828a016114cf565b92505060a087013567ffffffffffffffff8111156115e4576115e361137e565b5b6115f089828a0161148a565b9150509295509295509295565b60008060008060008060c0878903121561161a57611619611379565b5b600061162889828a016114cf565b965050602087013567ffffffffffffffff8111156116495761164861137e565b5b61165589828a0161148a565b955050604087013567ffffffffffffffff8111156116765761167561137e565b5b61168289828a0161148a565b945050606087013567ffffffffffffffff8111156116a3576116a261137e565b5b6116af89828a0161148a565b935050608087013567ffffffffffffffff8111156116d0576116cf61137e565b5b6116dc89828a0161148a565b92505060a06116ed89828a016114cf565b9150509295509295509295565b6000602082840312156117105761170f611379565b5b600061171e848285016114cf565b91505092915050565b6000806040838503121561173e5761173d611379565b5b600061174c858286016114cf565b925050602083013567ffffffffffffffff81111561176d5761176c61137e565b5b6117798582860161148a565b9150509250929050565b600060e08301600083015161179b6000860182611157565b50602083015184820360208601526117b382826111c6565b915050604083015184820360408601526117cd82826111c6565b915050606083015184820360608601526117e782826111c6565b9150506080830151848203608086015261180182826111c6565b91505060a083015161181660a0860182611157565b5060c083015184820360c086015261182e82826111c6565b9150508091505092915050565b600060208201905081810360008301526118558184611783565b905092915050565b7f4e487b7100000000000000000000000000000000000000000000000000000000600052602260045260246000fd5b600060028204905060018216806118a457607f821691505b602082108114156118b8576118b761185d565b5b50919050565b6118c78161114d565b82525050565b600082825260208201905092915050565b60006118e982611166565b6118f381856118cd565b9350611903818560208601611182565b61190c816111b5565b840191505092915050565b600060e08201905061192c600083018a6118be565b818103602083015261193e81896118de565b9050818103604083015261195281886118de565b9050818103606083015261196681876118de565b9050818103608083015261197a81866118de565b905061198960a08301856118be565b81810360c083015261199b81846118de565b905098975050505050505050565b7f4e487b7100000000000000000000000000000000000000000000000000000000600052601160045260246000fd5b60006119e38261114d565b91507fffffffffffffffffffffffffffffffffffffffffffffffffffffffffffffffff821415611a1657611a156119a9565b5b600182019050919050565b7f4e487b7100000000000000000000000000000000000000000000000000000000600052603260045260246000fd5b7f5461736b206e6f7420666f756e64000000000000000000000000000000000000600082015250565b6000611a86600e836118cd565b9150611a9182611a50565b602082019050919050565b60006020820190508181036000830152611ab581611a79565b9050919050565b6000611ac78261114d565b9150611ad28361114d565b925082821015611ae557611ae46119a9565b5b828203905092915050565b7f4e487b7100000000000000000000000000000000000000000000000000000000600052603160045260246000fd5b6000602082019050611b3460008301846118be565b9291505056fea26469706673582212207193ebdd2fa873d5e90f7eca9a8f751c8fe4b80cb39771ed6613ce6ad406b0fa64736f6c634300080b0033",
    "linkReferences": {},
    "deployedLinkReferences": {}
}